:020000040000fa
:080000000002040000000000f2
:020000040000fa
:10000800d2020000d2020000d2020000d202000098
:10001800d2020000d2020000d2020000d202000088
:10002800d2020000d2020000d2020000f004000058
:10003800d2020000d2020000d2020000d202000068
:10004800d2020000d2020000d2020000d202000058
:10005800d2020000d2020000d2020000d202000048
:10006800d2020000d2020000d2020000d202000038
:10007800d2020000d2020000d2020000d202000028
:10008800d2020000d2020000d2020000d202000018
:10009800d2020000d2020000d2020000d202000008
:1000a800d2020000d2020000d20200006604000062
:1000b800d2020000d2020000d2020000d2020000e8
:1000c800d2020000d2020000d2020000d2020000d8
:1000d800d2020000d2020000d2020000d2020000c8
:1000e800d2020000d2020000d2020000d2020000b8
:1000f800d2020000d2020000d2020000d2020000a8
:10010800d2020000d2020000d2020000d202000097
:10011800d2020000d2020000d2020000d202000087
:10012800d2020000d2020000d2020000d202000077
:10013800d2020000d2020000d2020000d202000067
:10014800d2020000d2020000d2020000d202000057
:10015800d2020000d2020000d2020000d202000047
:10016800d2020000d2020000d2020000d202000037
:10017800d2020000d2020000d2020000d202000027
:10018800d2020000d2020000d2020000d202000017
:10019800d2020000d2020000d2020000d202000007
:1001a800d2020000d2020000d2020000d2020000f7
:1001b800d2020000d2020000d2020000d2020000e7
:1001c800d2020000d2020000d2020000d2020000d7
:1001d800d2020000d2020000d2020000d2020000c7
:1001e800d2020000d2020000d2020000d2020000b7
:1001f800d2020000d2020000d2020000d2020000a7
:10020800d2020000d2020000d2020000d202000096
:10021800d2020000d2020000d2020000d202000086
:10022800d2020000d2020000d2020000d202000076
:10023800d2020000d2020000d2020000d202000066
:10024800d2020000d2020000d2020000d202000056
:10025800d2020000d2020000d2020000d202000046
:10026800d2020000d2020000d2020000d202000036
:0c027800d2020000d2020000d2020000fe
:020000040000fa
:10040000ef1421000eff21000e0188000000000003
:10041000000020000000e000020032000001200087
:10042000200288000c000700005c20000100200072
:100430000f000700000020000000e0000200320072
:1004400000000200000000003e0502000000000065
:100450000040da000000fe00200020000000e00064
:100460000200320010002000900188000000060009
:10047000a1028800800078000000eb001a0037001d
:10048000e280400054a0b4009101ba00e280400034
:1004900054a0b4009102ba00e280400054a0b4001d
:1004a0000002eb00472bde00f507b200a601880032
:1004b000602ce10008003a000049eb000201e8006e
:1004c000020039003420ec0002f0a0008301e900b2
:1004d000f9ff3e00040037006128e100010032000e
:1004e0000082eb00040007001101ba000200e000e6
:1004f000e3ff3a000000060004d0a300e20f490029
:100500001c003900810278003549ba000201e80078
:10051000020039003420ec0002f0a0008301e90061
:100520000f0032002549ba000201e800020039003c
:100530003420ec0002f0a0008301e9000800320042
:100540000400e0000600320015c9ba000201e8000c
:10055000020039003420ec0002f0a0008301e90021
:100560008180e80054a0b4000300e000e2ff3a00fc
:10057000000006009102ba00055978008301e900e5
:10058000f7ff3200c82ade00055978008301e90030
:10059000f3ff32000400e000f1ff320011d9ba008d
:1005a000eeff37000040da000000fe000000fa0015
:1005b0000002780002003700315a78000201e90099
:1005c000e00f5100fcff3a000080fa000000060036
:020000040000fa
:1005d0000000fa00042080000480a1000490a10023
:1005e00004a0a00004208800000000000520800076
:1005f000047020008482620004402000848f520036
:10060000faff3a000004a9000164a90001a4a900ae
:100610000064a900842080000460a0000470a10090
:10062000842088008520800004fc2f000482620062
:100630009400b3008420880013c4a90012e4a80029
:10064000942080000480a0000490a10004a0a000d9
:100650009420880012c4a900942080000430a000d7
:100660000440a0000450a000942088009420800042
:100670000400a1000410a1000420a0009420880020
:10068000042080000480a1000490a10004a0a10027
:10069000042088000000000005208000040e2000d7
:1006a00004826200e00f5200fbff3a00f4012c00cc
:1006b00034208800290007005b00070030e4a80010
:1006c000842180000400a0000410a100842188007f
:1006d0000002eb005421880054218000442188004e
:1006e0004421800014218800142180000421880006
:1006f00004412000048088000002eb001480880080
:100700004400200024808800d4b02a00348088006f
:10071000600007009d00070010cea8000002eb005b
:10072000a4368800a536800004f82f008482620079
:100730006402200005027200a4368800253480007f
:10074000f40f2c008482620004e020000502720095
:10075000243488000080fa00000006000000fa003f
:100760000002eb00845f88000002eb00945f8800c9
:1007700001cba90001aba800045880000440a100ef
:100780000450a00004588800045880000400a10010
:100790000410a10004588800640420001458880044
:1007a0007400200074588800244420006458880095
:1007b00004002100245888000400210034588800d7
:1007c00001eba80011cba90011aba900845880004f
:1007d0000440a1000450a000845888008458800080
:1007e0000400a1000410a100845888002402200005
:1007f0009458880074002000f458880004442000b5
:10080000e4588800040a210070024200a4588800bd
:10081000040a210070024200b458880011eba800bd
:100820000080fa00000006000000fa000004a800a2
:10083000c42080000400a1000410a100c42088008e
:100840008521800004fe2f000502720084218800ab
:1008500004228000ff02620004542300050272009b
:10086000042288003064a8004064a90004218000ac
:100870000400a1000410a0000420a1000430a00086
:10088000042188001404a8000004a9000080fa00d4
:10089000000006000000fa000002eb00642088005f
:1008a0000002eb00542088002468a8000c24a80053
:1008b0008442800004c0a10004d0a00004e0a00095
:1008c000844288000080fa00000006003600f8002c
:1008d000809fbe00829fbe00849fbe00869fbe0098
:1008e0003200f80010002000900188000000000095
:1008f0000000fa005420800062026200e00f520003
:100900000b003200052180000440200004826200b8
:10091000e00f520005003200448a80000402e80023
:10092000448a88000b0007002144a9000a24a9007a
:100930000468a9000080fa003200f9004f03be00ed
:100940004f02be004f01be004f00be003600f9004e
:10095000004006000000fa00640b21008200200025
:10096000840078000014210010ff07000080fa00c6
:10097000000006000000fa000414210014027800b0
:10098000040078000080fa00000006000000fa0071
:100990000002eb00240888000068a90004428000df
:1009a00004c0a00004d0a00004e0a000044288001d
:1009b0002068a8000002eb0004088800f43f200033
:1009c00014088800240880000440a1000450a000fe
:1009d0002408880005e1a8000080fa000000060055
:1009e000801f7800849fbe000000fa000068a90004
:1009f00005e1a900c4142100144278000442e80073
:100a00000002fd004cf1b7000002fd00c5142100fa
:100a10009542780044c6b30084cf520010003400e1
:100a2000458a8000548a8000848f52000200320080
:100a3000042ea80005003700458a8000548a8000f3
:100a4000848f520001003a00042ea900448a8000dd
:100a5000548a88000042eb00040078004cf1b70093
:100a60000002eb000408880005e1a8000080fa00fd
:100a70004f02be004f007800004006000600fa005a
:100a800010079800210798000500070037000700ad
:100a9000b8ff070000027800040f7800fcff370061
:100aa0000000fa0040a7a900453a800004fc2f008e
:100ab00004826200443a8800243a80000460a10065
:100ac0000470a100243a8800253a800004fe2f001b
:100ad00004826200243a8800353a800004e02f0046
:100ae00084826200a402200005027200343a880069
:100af00000000000153a8000040220000482620019
:100b0000e00f5200fbff32000002eb0004408800bf
:100b10000002eb00144088000002eb002440880033
:100b20000002eb00344088000002eb0044408800e3
:100b30000002eb00147088000002eb0004708800d3
:100b40000002eb00947088000002eb0084708800c3
:100b50000002eb00747088000002eb00f470880063
:100b60009bfe07000080fa00000006000000fa006b
:100b7000044ea900046ea9000080fa0000000600df
:020000040000fa
:100b8000401100000e000000800000000010000076
:100b9000a000000080000000a0100000a0000000e5
:080ba0008000000000000000cd
:020000040000fa
:04afe000cfff00009f
:020000040000fa
:04afe400ffff00006b
:020000040000fa
:04afe8005fff000007
:020000040000fa
:04afec009bff0000c7
:020000040000fa
:04aff00039ff000025
:020000040000fa
:04aff400ffff00005b
:00000001FF
